{
  "contractName": "Ballot",
  "abi": [
    {
      "inputs": [],
      "payable": false,
      "stateMutability": "nonpayable",
      "type": "constructor"
    },
    {
      "constant": true,
      "inputs": [
        {
          "internalType": "uint256",
          "name": "",
          "type": "uint256"
        }
      ],
      "name": "candidates",
      "outputs": [
        {
          "internalType": "string",
          "name": "name",
          "type": "string"
        },
        {
          "internalType": "string",
          "name": "partyFlag",
          "type": "string"
        },
        {
          "internalType": "uint256",
          "name": "nominationNumber",
          "type": "uint256"
        }
      ],
      "payable": false,
      "stateMutability": "view",
      "type": "function"
    },
    {
      "constant": true,
      "inputs": [
        {
          "internalType": "uint256",
          "name": "",
          "type": "uint256"
        }
      ],
      "name": "votes",
      "outputs": [
        {
          "internalType": "uint256",
          "name": "candidate",
          "type": "uint256"
        },
        {
          "internalType": "uint256",
          "name": "votingCenter",
          "type": "uint256"
        },
        {
          "internalType": "uint256",
          "name": "count",
          "type": "uint256"
        }
      ],
      "payable": false,
      "stateMutability": "view",
      "type": "function"
    },
    {
      "constant": true,
      "inputs": [
        {
          "internalType": "uint256",
          "name": "",
          "type": "uint256"
        }
      ],
      "name": "votingCenters",
      "outputs": [
        {
          "internalType": "uint256",
          "name": "centerId",
          "type": "uint256"
        },
        {
          "internalType": "string",
          "name": "name",
          "type": "string"
        },
        {
          "internalType": "uint256",
          "name": "count",
          "type": "uint256"
        }
      ],
      "payable": false,
      "stateMutability": "view",
      "type": "function"
    },
    {
      "constant": true,
      "inputs": [],
      "name": "getCandidateList",
      "outputs": [
        {
          "components": [
            {
              "internalType": "string",
              "name": "name",
              "type": "string"
            },
            {
              "internalType": "string",
              "name": "partyFlag",
              "type": "string"
            },
            {
              "internalType": "uint256",
              "name": "nominationNumber",
              "type": "uint256"
            }
          ],
          "internalType": "struct Types.Candidate[]",
          "name": "",
          "type": "tuple[]"
        }
      ],
      "payable": false,
      "stateMutability": "view",
      "type": "function"
    },
    {
      "constant": true,
      "inputs": [
        {
          "internalType": "address",
          "name": "voterAddress",
          "type": "address"
        }
      ],
      "name": "isVoterEligible",
      "outputs": [
        {
          "internalType": "bool",
          "name": "voterEligible_",
          "type": "bool"
        }
      ],
      "payable": false,
      "stateMutability": "view",
      "type": "function"
    },
    {
      "constant": false,
      "inputs": [
        {
          "internalType": "uint256",
          "name": "votingCenter_",
          "type": "uint256"
        },
        {
          "internalType": "uint256",
          "name": "candidate_",
          "type": "uint256"
        }
      ],
      "name": "vote",
      "outputs": [],
      "payable": false,
      "stateMutability": "nonpayable",
      "type": "function"
    },
    {
      "constant": true,
      "inputs": [
        {
          "internalType": "uint256",
          "name": "votingCenter_",
          "type": "uint256"
        }
      ],
      "name": "getResultsPerVotingCenter",
      "outputs": [
        {
          "internalType": "uint256[]",
          "name": "",
          "type": "uint256[]"
        }
      ],
      "payable": false,
      "stateMutability": "view",
      "type": "function"
    },
    {
      "constant": true,
      "inputs": [],
      "name": "getResults",
      "outputs": [
        {
          "internalType": "uint256[]",
          "name": "",
          "type": "uint256[]"
        }
      ],
      "payable": false,
      "stateMutability": "view",
      "type": "function"
    },
    {
      "constant": false,
      "inputs": [],
      "name": "registerVoter",
      "outputs": [],
      "payable": false,
      "stateMutability": "nonpayable",
      "type": "function"
    }
  ],
  "bytecode": "0x60806040523480156200001157600080fd5b50620000226200009960201b60201c565b620000326200050560201b60201c565b6200004262000c1960201b60201c565b6200005262000c1b60201b60201c565b33600560006101000a81548173ffffffffffffffffffffffffffffffffffffffff021916908373ffffffffffffffffffffffffffffffffffffffff16021790555062000dc1565b600060405180606001604052806040518060400160405280600281526020017f4e4400000000000000000000000000000000000000000000000000000000000081525081526020016040518060800160405280604d815260200162001e4e604d9139815260200160018152509080600181540180825580915050906001820390600052602060002090600302016000909192909190915060008201518160000190805190602001906200014e92919062000cbb565b5060208201518160010190805190602001906200016d92919062000cbb565b5060408201518160020155505050600060405180606001604052806040518060400160405280600581526020017f5041534f4b00000000000000000000000000000000000000000000000000000081525081526020016040518060c001604052806093815260200162001d0f60939139815260200160028152509080600181540180825580915050906001820390600052602060002090600302016000909192909190915060008201518160000190805190602001906200023092919062000cbb565b5060208201518160010190805190602001906200024f92919062000cbb565b5060408201518160020155505050600060405180606001604052806040518060400160405280600681526020017f535952495a410000000000000000000000000000000000000000000000000000815250815260200160405180608001604052806050815260200162001e9b60509139815260200160038152509080600181540180825580915050906001820390600052602060002090600302016000909192909190915060008201518160000190805190602001906200031292919062000cbb565b5060208201518160010190805190602001906200033192919062000cbb565b5060408201518160020155505050600060405180606001604052806040518060400160405280600381526020017f4b4b450000000000000000000000000000000000000000000000000000000000815250815260200160405180608001604052806048815260200162001da26048913981526020016004815250908060018154018082558091505090600182039060005260206000209060030201600090919290919091506000820151816000019080519060200190620003f492919062000cbb565b5060208201518160010190805190602001906200041392919062000cbb565b5060408201518160020155505050600060405180606001604052806040518060400160405280600681526020017f4d4552413235000000000000000000000000000000000000000000000000000081525081526020016040518060a001604052806064815260200162001dea6064913981526020016005815250908060018154018082558091505090600182039060005260206000209060030201600090919290919091506000820151816000019080519060200190620004d692919062000cbb565b506020820151816001019080519060200190620004f592919062000cbb565b5060408201518160020155505050565b60026040518060600160405280600181526020016040518060400160405280600f81526020017f766f74696e672063656e746572203100000000000000000000000000000000008152508152602001600081525090806001815401808255809150509060018203906000526020600020906003020160009091929091909150600082015181600001556020820151816001019080519060200190620005ac92919062000cbb565b506040820151816002015550505060026040518060600160405280600281526020016040518060400160405280600f81526020017f766f74696e672063656e7465722032000000000000000000000000000000000081525081526020016000815250908060018154018082558091505090600182039060005260206000209060030201600090919290919091506000820151816000015560208201518160010190805190602001906200066192919062000cbb565b506040820151816002015550505060026040518060600160405280600381526020016040518060400160405280600f81526020017f766f74696e672063656e7465722033000000000000000000000000000000000081525081526020016000815250908060018154018082558091505090600182039060005260206000209060030201600090919290919091506000820151816000015560208201518160010190805190602001906200071692919062000cbb565b506040820151816002015550505060026040518060600160405280600481526020016040518060400160405280600f81526020017f766f74696e672063656e746572203400000000000000000000000000000000008152508152602001600081525090806001815401808255809150509060018203906000526020600020906003020160009091929091909150600082015181600001556020820151816001019080519060200190620007cb92919062000cbb565b506040820151816002015550505060026040518060600160405280600581526020016040518060400160405280600f81526020017f766f74696e672063656e7465722035000000000000000000000000000000000081525081526020016000815250908060018154018082558091505090600182039060005260206000209060030201600090919290919091506000820151816000015560208201518160010190805190602001906200088092919062000cbb565b506040820151816002015550505060026040518060600160405280600681526020016040518060400160405280600f81526020017f766f74696e672063656e7465722036000000000000000000000000000000000081525081526020016000815250908060018154018082558091505090600182039060005260206000209060030201600090919290919091506000820151816000015560208201518160010190805190602001906200093592919062000cbb565b506040820151816002015550505060026040518060600160405280600781526020016040518060400160405280600f81526020017f766f74696e672063656e746572203700000000000000000000000000000000008152508152602001600081525090806001815401808255809150509060018203906000526020600020906003020160009091929091909150600082015181600001556020820151816001019080519060200190620009ea92919062000cbb565b506040820151816002015550505060026040518060600160405280600881526020016040518060400160405280600f81526020017f766f74696e672063656e74657220380000000000000000000000000000000000815250815260200160008152509080600181540180825580915050906001820390600052602060002090600302016000909192909190915060008201518160000155602082015181600101908051906020019062000a9f92919062000cbb565b506040820151816002015550505060026040518060600160405280600981526020016040518060400160405280600f81526020017f766f74696e672063656e74657220390000000000000000000000000000000000815250815260200160008152509080600181540180825580915050906001820390600052602060002090600302016000909192909190915060008201518160000155602082015181600101908051906020019062000b5492919062000cbb565b506040820151816002015550505060026040518060600160405280600a81526020016040518060400160405280601081526020017f766f74696e672063656e74657220313000000000000000000000000000000000815250815260200160008152509080600181540180825580915050906001820390600052602060002090600302016000909192909190915060008201518160000155602082015181600101908051906020019062000c0992919062000cbb565b5060408201518160020155505050565b565b60008090505b60028054905081101562000cb85760008090505b60008054905081101562000ca95760066040518060400160405280600060ff168152602001600060ff1681525090806001815401808255809150509060018203906000526020600020016000909192909190915090600262000c9992919062000d42565b5050808060010191505062000c35565b50808060010191505062000c21565b50565b828054600181600116156101000203166002900490600052602060002090601f016020900481019282601f1062000cfe57805160ff191683800117855562000d2f565b8280016001018555821562000d2f579182015b8281111562000d2e57825182559160200191906001019062000d11565b5b50905062000d3e919062000d99565b5090565b82805482825590600052602060002090810192821562000d86579160200282015b8281111562000d85578251829060ff1690559160200191906001019062000d63565b5b50905062000d95919062000d99565b5090565b62000dbe91905b8082111562000dba57600081600090555060010162000da0565b5090565b90565b610f3e8062000dd16000396000f3fe608060405234801561001057600080fd5b50600436106100935760003560e01c80635df81330116100665780635df813301461014a578063b384abef1461017c578063baf5ccb814610198578063ecb617d9146101c8578063fdbc4006146101d257610093565b80631660ca46146100985780633477ee2e146100c85780634717f97c146100fa578063541a33d114610118575b600080fd5b6100b260048036036100ad9190810190610a06565b6101f0565b6040516100bf9190610ccd565b60405180910390f35b6100e260048036036100dd9190810190610a2f565b610255565b6040516100f193929190610ce8565b60405180910390f35b6101026103bc565b60405161010f9190610cab565b60405180910390f35b610132600480360361012d9190810190610a2f565b61046d565b60405161014193929190610d2d565b60405180910390f35b610164600480360361015f9190810190610a2f565b61053c565b60405161017393929190610d6b565b60405180910390f35b61019660048036036101919190810190610a58565b610573565b005b6101b260048036036101ad9190810190610a2f565b61069b565b6040516101bf9190610cab565b60405180910390f35b6101d061070a565b005b6101da610813565b6040516101e79190610c89565b60405180910390f35b600080600160008473ffffffffffffffffffffffffffffffffffffffff1673ffffffffffffffffffffffffffffffffffffffff16815260200190815260200160002090508060000160009054906101000a900460ff1661024f57600191505b50919050565b6000818154811061026257fe5b9060005260206000209060030201600091509050806000018054600181600116156101000203166002900480601f01602080910402602001604051908101604052809291908181526020018280546001816001161561010002031660029004801561030e5780601f106102e35761010080835404028352916020019161030e565b820191906000526020600020905b8154815290600101906020018083116102f157829003601f168201915b505050505090806001018054600181600116156101000203166002900480601f0160208091040260200160405190810160405280929190818152602001828054600181600116156101000203166002900480156103ac5780601f10610381576101008083540402835291602001916103ac565b820191906000526020600020905b81548152906001019060200180831161038f57829003601f168201915b5050505050908060020154905083565b60608060008090505b6000805490508110156104655760008282815181106103e057fe5b60200260200101818152505060008090505b600280549050811015610457576006828154811061040c57fe5b90600052602060002001818154811061042157fe5b906000526020600020015483838151811061043857fe5b60200260200101818151019150818152505080806001019150506103f2565b5080806001019150506103c5565b508091505090565b6002818154811061047a57fe5b9060005260206000209060030201600091509050806000015490806001018054600181600116156101000203166002900480601f01602080910402602001604051908101604052809291908181526020018280546001816001161561010002031660029004801561052c5780601f106105015761010080835404028352916020019161052c565b820191906000526020600020905b81548152906001019060200180831161050f57829003601f168201915b5050505050908060020154905083565b6004818154811061054957fe5b90600052602060002090600302016000915090508060000154908060010154908060020154905083565b61057b6109c0565b600160003373ffffffffffffffffffffffffffffffffffffffff1673ffffffffffffffffffffffffffffffffffffffff1681526020019081526020016000206040518060400160405290816000820160009054906101000a900460ff16151515158152602001600182015481525050905060001515816000015115151461060157600080fd5b60018060003373ffffffffffffffffffffffffffffffffffffffff1673ffffffffffffffffffffffffffffffffffffffff16815260200190815260200160002060000160006101000a81548160ff02191690831515021790555060016006848154811061066a57fe5b90600052602060002001838154811061067f57fe5b9060005260206000200160008282540192505081905550505050565b6060600682815481106106aa57fe5b906000526020600020018054806020026020016040519081016040528092919081815260200182805480156106fe57602002820191906000526020600020905b8154815260200190600101908083116106ea575b50505050509050919050565b600080905060008090505b60028054905081101561078b57600a6002828154811061073157fe5b906000526020600020906003020160020154101561077e5780915060016002828154811061075b57fe5b90600052602060002090600302016002016000828254019250508190555061078b565b8080600101915050610715565b50604051806040016040528060001515815260200182815250600160003373ffffffffffffffffffffffffffffffffffffffff1673ffffffffffffffffffffffffffffffffffffffff16815260200190815260200160002060008201518160000160006101000a81548160ff0219169083151502179055506020820151816001015590505050565b60606000805480602002602001604051908101604052809291908181526020016000905b828210156109b75783829060005260206000209060030201604051806060016040529081600082018054600181600116156101000203166002900480601f0160208091040260200160405190810160405280929190818152602001828054600181600116156101000203166002900480156108f35780601f106108c8576101008083540402835291602001916108f3565b820191906000526020600020905b8154815290600101906020018083116108d657829003601f168201915b50505050508152602001600182018054600181600116156101000203166002900480601f0160208091040260200160405190810160405280929190818152602001828054600181600116156101000203166002900480156109955780601f1061096a57610100808354040283529160200191610995565b820191906000526020600020905b81548152906001019060200180831161097857829003601f168201915b5050505050815260200160028201548152505081526020019060010190610837565b50505050905090565b6040518060400160405280600015158152602001600081525090565b6000813590506109eb81610ecd565b92915050565b600081359050610a0081610ee4565b92915050565b600060208284031215610a1857600080fd5b6000610a26848285016109dc565b91505092915050565b600060208284031215610a4157600080fd5b6000610a4f848285016109f1565b91505092915050565b60008060408385031215610a6b57600080fd5b6000610a79858286016109f1565b9250506020610a8a858286016109f1565b9150509250929050565b6000610aa08383610c14565b905092915050565b6000610ab48383610c6b565b60208301905092915050565b6000610acb82610dc2565b610ad58185610dfd565b935083602082028501610ae785610da2565b8060005b85811015610b235784840389528151610b048582610a94565b9450610b0f83610de3565b925060208a01995050600181019050610aeb565b50829750879550505050505092915050565b6000610b4082610dcd565b610b4a8185610e0e565b9350610b5583610db2565b8060005b83811015610b86578151610b6d8882610aa8565b9750610b7883610df0565b925050600181019050610b59565b5085935050505092915050565b610b9c81610e53565b82525050565b6000610bad82610dd8565b610bb78185610e1f565b9350610bc7818560208601610e89565b610bd081610ebc565b840191505092915050565b6000610be682610dd8565b610bf08185610e30565b9350610c00818560208601610e89565b610c0981610ebc565b840191505092915050565b60006060830160008301518482036000860152610c318282610ba2565b91505060208301518482036020860152610c4b8282610ba2565b9150506040830151610c606040860182610c6b565b508091505092915050565b610c7481610e7f565b82525050565b610c8381610e7f565b82525050565b60006020820190508181036000830152610ca38184610ac0565b905092915050565b60006020820190508181036000830152610cc58184610b35565b905092915050565b6000602082019050610ce26000830184610b93565b92915050565b60006060820190508181036000830152610d028186610bdb565b90508181036020830152610d168185610bdb565b9050610d256040830184610c7a565b949350505050565b6000606082019050610d426000830186610c7a565b8181036020830152610d548185610bdb565b9050610d636040830184610c7a565b949350505050565b6000606082019050610d806000830186610c7a565b610d8d6020830185610c7a565b610d9a6040830184610c7a565b949350505050565b6000819050602082019050919050565b6000819050602082019050919050565b600081519050919050565b600081519050919050565b600081519050919050565b6000602082019050919050565b6000602082019050919050565b600082825260208201905092915050565b600082825260208201905092915050565b600082825260208201905092915050565b600082825260208201905092915050565b6000610e4c82610e5f565b9050919050565b60008115159050919050565b600073ffffffffffffffffffffffffffffffffffffffff82169050919050565b6000819050919050565b60005b83811015610ea7578082015181840152602081019050610e8c565b83811115610eb6576000848401525b50505050565b6000601f19601f8301169050919050565b610ed681610e41565b8114610ee157600080fd5b50565b610eed81610e7f565b8114610ef857600080fd5b5056fea365627a7a72315820ce4b842207aa813324980700b3a3987c7a6cc4c1f37cae6e3b3434ebecd5629c6c6578706572696d656e74616cf564736f6c6343000510004068747470733a2f2f75706c6f61642e77696b696d656469612e6f72672f77696b6970656469612f636f6d6d6f6e732f7468756d622f622f62392f50616e656c6c696e696f5f536f7369616c697374696b6f5f4b696e696d615f4c6f676f2e7376672f38303070782d50616e656c6c696e696f5f536f7369616c697374696b6f5f4b696e696d615f4c6f676f2e7376672e706e6768747470733a2f2f7777772e6b6b652e67722f6578706f72742f73697465732f64656661756c742f2e636f6e74656e742f736974652d696d616765732f6c6f676f2d6f672e6a706768747470733a2f2f75706c6f61642e77696b696d656469612e6f72672f77696b6970656469612f636f6d6d6f6e732f7468756d622f612f61652f4d65726132352d6c6f676f2e7376672f3132303070782d4d65726132352d6c6f676f2e7376672e706e6768747470733a2f2f7777772e6e6577733234372e67722f696d672f313635392f363635343431302f3636333030302f773636302f3636302f6e646e65776c6f676f6f6666696369616c2e6a706768747470733a2f2f677265656b7265706f727465722e636f6d2f77702d636f6e74656e742f75706c6f6164732f323032302f30392f737972697a612d6e656f2d73696d612d31352d392d32302e6a7067",
  "source": "// SPDX-License-Identifier: GPL-3.0\npragma experimental ABIEncoderV2;\npragma solidity >=0.4.25 <0.9.0;\n\nimport \"./Types.sol\";\n\n/**\n * @title Ballot\n * @author Aimilios Vatikiotis \n * @dev Implements voting process along with winning candidate\n */\ncontract Ballot {\n    Types.Candidate[] public candidates;\n    mapping(address => Types.Voter) voters;\n    // mapping(uint256 => Types.Candidate) candidate;\n    Types.VotingCenter[] public votingCenters;\n    mapping(uint256 => uint256) internal votesCount;\n    Types.Vote[] public votes;\n    address electionChief;\n    //2-dim results array. 1st dim: voting centers, 2nd dim candidates\n    uint256[][] Results;\n\n\n    /**\n     * @dev Create a new ballot to choose one of 'candidateNames'\n     */\n      constructor() public{\n        initializeCandidateDatabase_();\n        initializeVotingCenterDatabase_();\n        initializeVoterDatabase_();\n        \n        initializeResultsDatabase_();\n        electionChief = msg.sender;\n\n\n        \n    }\n\n    /**\n     * @dev Get candidate list.\n\n     * @return candidatesList_ All the politicians who participate in the election\n     */\n    function getCandidateList()\n        public\n        view\n        returns (Types.Candidate[] memory)\n    {    \n        return candidates;\n    }\n\n    /**\n     * @dev Get candidate list.\n     * @param voterAddress  address of the current voter to send the relevent candidates list\n     * @return voterEligible_ Whether the voter with provided  is eligible or not\n     */\n    function isVoterEligible(address voterAddress)\n        public\n        view\n        returns (bool voterEligible_)\n    {\n        Types.Voter storage voter_ = voters[voterAddress];\n        if (!voter_.hasVoted) voterEligible_ = true;\n    }\n\n\n\n    /**\n     * @dev Give your vote to candidate.\n     * @param votingCenter_ Number of the voting center\n     * @param candidate_  Number of the candidate\n     */\n    function vote(uint256 votingCenter_, uint256 candidate_) isEligibleVote public\n    {\n        // updating the current voter values\n        voters[msg.sender].hasVoted = true;\n\n       Results[votingCenter_][candidate_] += 1;\n    }\n\n    /**\n     * @dev sends all candidate list with their votes count\n     * @param votingCenter_ voting center\n     * @return uint256[] array of total counts per candidate of voting center\n     */\n    function getResultsPerVotingCenter(uint256 votingCenter_)\n        public\n        view\n        returns (uint256[] memory)\n    {\n    \n        return Results[votingCenter_];\n    }\n\n\n   /**\n     * @dev sends all candidate list with their votes count\n     * @return uint256[] array of total counts per candidate\n     */\n    function getResults()\n        public\n        view\n        returns (uint256[] memory)\n    {\n        uint256[] memory results;\n        for(uint i = 0; i < candidates.length; i++) {\n            results[i] = 0;\n            for(uint j = 0; j < votingCenters.length; j++) {\n                results[i] += Results[i][j];\n            }\n        }\n        return results;\n    }\n\n\n    /**\n     */\n    modifier isEligibleVote() {\n        Types.Voter memory voter_ = voters[msg.sender];    \n        require(voter_.hasVoted == false);\n        _;\n    }\n\n    /**\n     * @notice To check if the user is Election Chief or not\n     */\n    modifier isElectionChief() {\n        require(msg.sender == electionChief);\n        _;\n    }\n\n    /**\n     * Dummy data for Candidates\n     * In the future, we can accept the same from construction,\n     * which will be called at the time of deployment\n     */\n    function initializeCandidateDatabase_() internal {\n        candidates.push(Types.Candidate({\n            name: \"ND\",\n            partyFlag: \"https://www.news247.gr/img/1659/6654410/663000/w660/660/ndnewlogoofficial.jpg\",\n            nominationNumber: uint256(1)\n        }));\n        candidates.push(Types.Candidate({\n            name: \"PASOK\",\n            partyFlag: \"https://upload.wikimedia.org/wikipedia/commons/thumb/b/b9/Panellinio_Sosialistiko_Kinima_Logo.svg/800px-Panellinio_Sosialistiko_Kinima_Logo.svg.png\",\n            nominationNumber: uint256(2)\n        }));\n        candidates.push(Types.Candidate({\n            name: \"SYRIZA\",\n            partyFlag: \"https://greekreporter.com/wp-content/uploads/2020/09/syriza-neo-sima-15-9-20.jpg\",\n            nominationNumber: uint256(3)\n        }));\n        candidates.push(Types.Candidate({\n            name: \"KKE\",\n            partyFlag: \"https://www.kke.gr/export/sites/default/.content/site-images/logo-og.jpg\",\n            nominationNumber: uint256(4)\n        }));\n\n        candidates.push(Types.Candidate({\n            name: \"MERA25\",\n            partyFlag: \"https://upload.wikimedia.org/wikipedia/commons/thumb/a/ae/Mera25-logo.svg/1200px-Mera25-logo.svg.png\",\n            nominationNumber: uint256(5)\n        }));\n\n    \n    }\n\n    function initializeVotingCenterDatabase_() internal {\n        votingCenters.push(Types.VotingCenter({\n            centerId: 1,\n            name: \"voting center 1\",\n            count: 0\n        }));\n        votingCenters.push(Types.VotingCenter({\n            centerId: 2,\n            name: \"voting center 2\",\n            count: 0\n        }));\n        votingCenters.push(Types.VotingCenter({\n            centerId: 3,\n            name: \"voting center 3\",\n            count: 0\n        }));\n        votingCenters.push(Types.VotingCenter({\n            centerId: 4,\n            name: \"voting center 4\",\n            count: 0\n        }));\n        votingCenters.push(Types.VotingCenter({\n            centerId: 5,\n            name: \"voting center 5\",\n            count: 0\n        }));\n        votingCenters.push(Types.VotingCenter({\n            centerId: 6,\n            name: \"voting center 6\",\n            count: 0\n        }));\n        votingCenters.push(Types.VotingCenter({\n            centerId: 7,\n            name: \"voting center 7\",\n            count: 0\n        }));\n        votingCenters.push(Types.VotingCenter({\n            centerId: 8,\n            name: \"voting center 8\",\n            count: 0\n        }));\n        votingCenters.push(Types.VotingCenter({\n            centerId: 9,\n            name: \"voting center 9\",\n            count: 0\n        }));\n        votingCenters.push(Types.VotingCenter({\n            centerId: 10,\n            name: \"voting center 10\",\n            count: 0\n        }));\n    }\n    function initializeResultsDatabase_() internal {\n        for (uint i=0;i<votingCenters.length;i++){\n            for (uint j=0;j<candidates.length;j++){\n                Results.push ([0,0]);\n            }\n        }\n    }\n\n    function registerVoter() public {\n        uint256 votingCenterIndex = 0;\n        for(uint i = 0; i < votingCenters.length; i++) {\n            if(votingCenters[i].count < 10) {\n                votingCenterIndex = i;\n                votingCenters[i].count += 1;\n                break;\n            }\n        }\n        voters[msg.sender] = Types.Voter(false, votingCenterIndex);\n    }\n\n    /**\n     * Dummy data for voter users\n     */\n    function initializeVoterDatabase_() internal {\n        // voter[uint256(1)] = Types.Voter({\n        //     name: \"test1\",\n        //     number: uint256(2),\n        //     hasVoted: false\n        // });\n    }\n\n    function initializeVotingCenter_() internal {\n        Types.VotingCenter[] memory votingCenters_ = new Types.VotingCenter[](10);\n\n        votingCenters_[0] = Types.VotingCenter({\n            name: \"athens\",\n            centerId: uint256(1),\n            count: 0\n        });\n\n           votingCenters_[1] = Types.VotingCenter({\n            name: \"patra\",\n            centerId: uint256(2),\n            count: 0\n        });\n\n           votingCenters_[2] = Types.VotingCenter({\n            name: \"peiraias\",\n            centerId: uint256(3),\n            count: 0\n        });\n\n           votingCenters_[3] = Types.VotingCenter({\n            name: \"thessaloniki\",\n            centerId: uint256(4),\n            count: 0\n        });\n\n           votingCenters_[4] = Types.VotingCenter({\n            name: \"larissa\",\n            centerId: uint256(5),\n            count: 0\n        });\n\n           votingCenters_[5] = Types.VotingCenter({\n            name: \"lamia\",\n            centerId: uint256(6),\n            count: 0\n        });\n\n           votingCenters_[6] = Types.VotingCenter({\n            name: \"trikala\",\n            centerId: uint256(7),\n            count: 0\n        });\n\n           votingCenters_[7] = Types.VotingCenter({\n            name: \"krhth\",\n            centerId: uint256(8),\n            count: 0\n        });\n\n              votingCenters_[8] = Types.VotingCenter({\n            name: \"volos\",\n            centerId: uint256(9),\n            count: 0\n        });\n\n              votingCenters_[9] = Types.VotingCenter({\n            name: \"trikala\",\n            centerId: uint256(10),\n            count: 0\n        });\n    }\n}",
  "sourcePath": "/home/aimilios/Desktop/blockchain-repo/blochain_ballot/contracts/Ballot.sol",
  "compiler": {
    "name": "solc",
    "version": "0.5.16+commit.9c3226ce.Emscripten.clang"
  },
  "schemaVersion": "3.4.9",
  "updatedAt": "2022-09-18T18:17:10.699Z",
  "devdoc": {
    "author": "Aimilios Vatikiotis ",
    "details": "Implements voting process along with winning candidate",
    "methods": {
      "constructor": {
        "details": "Create a new ballot to choose one of 'candidateNames'"
      },
      "getCandidateList()": {
        "details": "Get candidate list.",
        "return": "candidatesList_ All the politicians who participate in the election"
      },
      "getResults()": {
        "details": "sends all candidate list with their votes count",
        "return": "uint256[] array of total counts per candidate"
      },
      "getResultsPerVotingCenter(uint256)": {
        "details": "sends all candidate list with their votes count",
        "params": {
          "votingCenter_": "voting center"
        },
        "return": "uint256[] array of total counts per candidate of voting center"
      },
      "isVoterEligible(address)": {
        "details": "Get candidate list.",
        "params": {
          "voterAddress": "address of the current voter to send the relevent candidates list"
        },
        "return": "voterEligible_ Whether the voter with provided  is eligible or not"
      },
      "vote(uint256,uint256)": {
        "details": "Give your vote to candidate.",
        "params": {
          "candidate_": "Number of the candidate",
          "votingCenter_": "Number of the voting center"
        }
      }
    },
    "title": "Ballot"
  },
  "userdoc": {
    "methods": {}
  }
}