{
  "contractName": "Ballot",
  "abi": [
    {
      "inputs": [
        {
          "internalType": "uint256",
          "name": "startTime_",
          "type": "uint256"
        },
        {
          "internalType": "uint256",
          "name": "endTime_",
          "type": "uint256"
        }
      ],
      "payable": false,
      "stateMutability": "nonpayable",
      "type": "constructor"
    },
    {
      "constant": true,
      "inputs": [
        {
          "internalType": "uint256",
          "name": "",
          "type": "uint256"
        }
      ],
      "name": "candidates",
      "outputs": [
        {
          "internalType": "string",
          "name": "name",
          "type": "string"
        },
        {
          "internalType": "string",
          "name": "partyShortcut",
          "type": "string"
        },
        {
          "internalType": "string",
          "name": "partyFlag",
          "type": "string"
        },
        {
          "internalType": "uint256",
          "name": "nominationNumber",
          "type": "uint256"
        },
        {
          "internalType": "uint8",
          "name": "stateCode",
          "type": "uint8"
        },
        {
          "internalType": "uint8",
          "name": "constituencyCode",
          "type": "uint8"
        }
      ],
      "payable": false,
      "stateMutability": "view",
      "type": "function"
    },
    {
      "constant": true,
      "inputs": [
        {
          "internalType": "uint256",
          "name": "voterNumber",
          "type": "uint256"
        }
      ],
      "name": "getCandidateList",
      "outputs": [
        {
          "components": [
            {
              "internalType": "string",
              "name": "name",
              "type": "string"
            },
            {
              "internalType": "string",
              "name": "partyShortcut",
              "type": "string"
            },
            {
              "internalType": "string",
              "name": "partyFlag",
              "type": "string"
            },
            {
              "internalType": "uint256",
              "name": "nominationNumber",
              "type": "uint256"
            },
            {
              "internalType": "uint8",
              "name": "stateCode",
              "type": "uint8"
            },
            {
              "internalType": "uint8",
              "name": "constituencyCode",
              "type": "uint8"
            }
          ],
          "internalType": "struct Types.Candidate[]",
          "name": "",
          "type": "tuple[]"
        }
      ],
      "payable": false,
      "stateMutability": "view",
      "type": "function"
    },
    {
      "constant": true,
      "inputs": [
        {
          "internalType": "uint256",
          "name": "voterNumber",
          "type": "uint256"
        }
      ],
      "name": "isVoterEligible",
      "outputs": [
        {
          "internalType": "bool",
          "name": "voterEligible_",
          "type": "bool"
        }
      ],
      "payable": false,
      "stateMutability": "view",
      "type": "function"
    },
    {
      "constant": true,
      "inputs": [
        {
          "internalType": "uint256",
          "name": "voterNumber",
          "type": "uint256"
        }
      ],
      "name": "didCurrentVoterVoted",
      "outputs": [
        {
          "internalType": "bool",
          "name": "userVoted_",
          "type": "bool"
        },
        {
          "components": [
            {
              "internalType": "string",
              "name": "name",
              "type": "string"
            },
            {
              "internalType": "string",
              "name": "partyShortcut",
              "type": "string"
            },
            {
              "internalType": "string",
              "name": "partyFlag",
              "type": "string"
            },
            {
              "internalType": "uint256",
              "name": "nominationNumber",
              "type": "uint256"
            },
            {
              "internalType": "uint8",
              "name": "stateCode",
              "type": "uint8"
            },
            {
              "internalType": "uint8",
              "name": "constituencyCode",
              "type": "uint8"
            }
          ],
          "internalType": "struct Types.Candidate",
          "name": "candidate_",
          "type": "tuple"
        }
      ],
      "payable": false,
      "stateMutability": "view",
      "type": "function"
    },
    {
      "constant": false,
      "inputs": [
        {
          "internalType": "uint256",
          "name": "nominationNumber",
          "type": "uint256"
        },
        {
          "internalType": "uint256",
          "name": "voterNumber",
          "type": "uint256"
        },
        {
          "internalType": "uint256",
          "name": "currentTime_",
          "type": "uint256"
        }
      ],
      "name": "vote",
      "outputs": [],
      "payable": false,
      "stateMutability": "nonpayable",
      "type": "function"
    },
    {
      "constant": true,
      "inputs": [],
      "name": "getVotingEndTime",
      "outputs": [
        {
          "internalType": "uint256",
          "name": "endTime_",
          "type": "uint256"
        }
      ],
      "payable": false,
      "stateMutability": "view",
      "type": "function"
    },
    {
      "constant": false,
      "inputs": [
        {
          "internalType": "uint256",
          "name": "startTime_",
          "type": "uint256"
        },
        {
          "internalType": "uint256",
          "name": "currentTime_",
          "type": "uint256"
        }
      ],
      "name": "updateVotingStartTime",
      "outputs": [],
      "payable": false,
      "stateMutability": "nonpayable",
      "type": "function"
    },
    {
      "constant": false,
      "inputs": [
        {
          "internalType": "uint256",
          "name": "endTime_",
          "type": "uint256"
        },
        {
          "internalType": "uint256",
          "name": "currentTime_",
          "type": "uint256"
        }
      ],
      "name": "extendVotingTime",
      "outputs": [],
      "payable": false,
      "stateMutability": "nonpayable",
      "type": "function"
    },
    {
      "constant": true,
      "inputs": [
        {
          "internalType": "uint256",
          "name": "currentTime_",
          "type": "uint256"
        }
      ],
      "name": "getResults",
      "outputs": [
        {
          "components": [
            {
              "internalType": "string",
              "name": "name",
              "type": "string"
            },
            {
              "internalType": "string",
              "name": "partyShortcut",
              "type": "string"
            },
            {
              "internalType": "string",
              "name": "partyFlag",
              "type": "string"
            },
            {
              "internalType": "uint256",
              "name": "voteCount",
              "type": "uint256"
            },
            {
              "internalType": "uint256",
              "name": "nominationNumber",
              "type": "uint256"
            },
            {
              "internalType": "uint8",
              "name": "stateCode",
              "type": "uint8"
            },
            {
              "internalType": "uint8",
              "name": "constituencyCode",
              "type": "uint8"
            }
          ],
          "internalType": "struct Types.Results[]",
          "name": "",
          "type": "tuple[]"
        }
      ],
      "payable": false,
      "stateMutability": "view",
      "type": "function"
    }
  ],
  "bytecode": "0x60806040523480156200001157600080fd5b506040516200344238038062003442833981016040819052620000349162001b49565b620000476001600160e01b036200007b16565b6200005a6001600160e01b036200042e16565b600591909155600655600480546001600160a01b0319163317905562001ba2565b60408051600e8082526101e08201909252606091816020015b6200009e62001a55565b815260200190600190039081620000945790505090506040518060c001604052806040518060400160405280601481526020017f4b797269616b696f73204d6874736f74616b6973000000000000000000000000815250815260200160405180604001604052806002815260200161139160f21b81525081526020016040518060800160405280604d8152602001620033a5604d9139815264a96106e5a66020820152600a60408201526001606090910152815182906000906200015e57fe5b60200260200101819052506040518060c00160405280604051806040016040528060118152602001704e696b6f7320416e64726f756c616b697360781b8152508152602001604051806040016040528060058152602001645041534f4b60d81b81525081526020016040518060c00160405280609381526020016200327060939139815264c27e5da76e6020820152600a604082015260016060909101819052825183919081106200020c57fe5b60200260200101819052506040518060c001604052806040518060400160405280600e81526020016d416c65786973205473697270617360901b815250815260200160405180604001604052806006815260200165535952495a4160d01b8152508152602001604051806080016040528060508152602001620033f260509139815264e19f3e55b76020820152600a60408201526002606090910181905282518391908110620002b857fe5b60200260200101819052506040518060c001604052806040518060400160405280601481526020017f44696d6974726973204b6f7574736f756d7061730000000000000000000000008152508152602001604051806040016040528060038152602001624b4b4560e81b81525081526020016040518060600160405280603e815260200162003303603e913981526463f451cce26020820152600a604082015260026060909101528151829060039081106200037057fe5b60200260200101819052506040518060c00160405280604051806040016040528060128152602001714769616e6e6973205661726f7566616b697360701b8152508152602001604051806040016040528060068152602001654d455241323560d01b81525081526020016040518060a00160405280606481526020016200334160649139815264d077cd0b7d6020820152600b604082015260016060909101528151829060049081106200042057fe5b602002602001018190525050565b6040805160e08101825264704892d024808252825180840184526005815264746573743160d81b602082810191909152808401918252601594840194909452600a606084015260016080840181905260a08401819052600060c085018190529290925290835281517fa7a766775a1cc834fc59ee5e38e7a27c550be59c7dbd2dc8ec140f4b1f4667799081559051805192939192620004f1927fa7a766775a1cc834fc59ee5e38e7a27c550be59c7dbd2dc8ec140f4b1f46677a92019062001a91565b5060408281015160028301805460608087015160808089015160a0808b015160ff1990961660ff9889161761ff001916610100948916949094029390931762ff000019166201000097909116969096029590951763ff00000019166301000000931515939093029290921790925560c095860151600390950194909455825160e081018452647be4f5771b8082528451808601865260058152643a32b9ba1960d91b602082810191909152808401918252602596840196909652600a938301939093526001938201849052600095820186905295810185905294909352815282517f232cd2334dd65769e71e2aa2c195cf980876a8eb6ecf2048ca949faf6674a2e19081559151805162000629927f232cd2334dd65769e71e2aa2c195cf980876a8eb6ecf2048ca949faf6674a2e292019062001a91565b5060408281015160028301805460608087015160808089015160a0808b015160ff1990961660ff9889161761ff001916610100948916949094029390931762ff000019166201000097909116969096029590951763ff00000019166301000000931515939093029290921790925560c095860151600390950194909455825160e081018452646cfae753fe808252845180860186526005815264746573743360d81b602082810191909152808401918252601a96840196909652600a938301939093526001938201849052948101839052600095810186905293909452815281517f1b3a7021b910de42e48c53ef9e4dd9d06e206d1a40f603d5f2b202a2e3c6ee609081559251805192939262000764927f1b3a7021b910de42e48c53ef9e4dd9d06e206d1a40f603d5f2b202a2e3c6ee6192019062001a91565b50604082810151600283810180546060808801516080808a015160a0808c015160ff1990961660ff998a161761ff001916610100948a16949094029390931762ff000019166201000098909116979097029690961763ff00000019166301000000931515939093029290921790925560c096870151600390960195909555835160e08101855264bc95724c2d8082528551808701875260058152641d195cdd0d60da1b602082810191909152808401918252601397840197909752600a9383019390935293810192909252600194820185905260009582018690529190945291815282517f1757a57a3665fdfdc357993048df2993db9c64b80e0fbfcbca368d33c1c71cae908155915180516200089f927f1757a57a3665fdfdc357993048df2993db9c64b80e0fbfcbca368d33c1c71caf92019062001a91565b50604082810151600283810180546060808801516080808a015160a0808c015160ff1990961660ff998a161761ff001916610100948a16949094029390931762ff000019166201000098909116979097029690961763ff00000019166301000000931515939093029290921790925560c096870151600390960195909555835160e08101855264d38e2fd0d6808252855180870187526005815264746573743560d81b602082810191909152808401918252602497840197909752600a9383019390935293810192909252600194820185905260009582018690529190945291815282517f35388ea09f12e739d60ed1f05e898eb6777f2cbfb0a7050c9dde6e36f231612790815591518051620009da927f35388ea09f12e739d60ed1f05e898eb6777f2cbfb0a7050c9dde6e36f231612892019062001a91565b50604082810151600283810180546060808801516080808a015160a0808c015160ff1990961660ff998a161761ff001916610100948a16949094029390931762ff000019166201000098909116979097029690961763ff00000019166301000000931515939093029290921790925560c096870151600390960195909555835160e08101855264b1081230bf8082528551808701875260058152643a32b9ba1b60d91b602082810191909152808401918252602a97840197909752600a9383019390935293810192909252600194820185905260009582018690529190945291815282517f443e070219c8cb3c0f3ee528dd5680b5cf16ddda358bf5d2d95a895459fcd2329081559151805162000b15927f443e070219c8cb3c0f3ee528dd5680b5cf16ddda358bf5d2d95a895459fcd23392019062001a91565b5060408281015160028301805460608087015160808089015160a0808b015160ff1990961660ff9889161761ff001916610100948916949094029390931762ff000019166201000097909116969096029590951763ff00000019166301000000931515939093029290921790925560c095860151600390950194909455825160e08101845264d392fd0ce6808252845180860186526005815264746573743760d81b602082810191909152808401918252601996840196909652600b938301939093526001938201849052948101839052600095810186905293909452815281517fe37e3282cf946d42746d01da27e04c4fe48ad3543cee63ab42de9b0f273c984e9081559251805192939262000c50927fe37e3282cf946d42746d01da27e04c4fe48ad3543cee63ab42de9b0f273c984f92019062001a91565b5060408281015160028301805460608087015160808089015160a0808b015160ff1990961660ff9889161761ff001916610100948916949094029390931762ff000019166201000097909116969096029590951763ff00000019166301000000931515939093029290921790925560c095860151600390950194909455825160e08101845264b55b9362448082528451808601865260058152640e8cae6e8760db1b602082810191909152808401918252602596840196909652600b938301939093526001938201849052948101839052600095810186905293909452815281517f30d4b24505605762448e86fccc156aa1978eeea8d82899cffd4384c78b10c3ff9081559251805192939262000d8b927f30d4b24505605762448e86fccc156aa1978eeea8d82899cffd4384c78b10c40092019062001a91565b50604082810151600283810180546060808801516080808a015160a0808c015160ff1990961660ff998a161761ff001916610100948a16949094029390931762ff000019166201000098909116979097029690961763ff00000019166301000000931515939093029290921790925560c096870151600390960195909555835160e081018552645b84e787e7808252855180870187526005815264746573743960d81b602082810191909152808401918252601d97840197909752600b9383019390935293810192909252600194820185905260009582018690529190945291815282517f25960912c3b6edab299da1dc45160cd1fd55e1029d7207fb8128077bd9e85b9c9081559151805162000ec6927f25960912c3b6edab299da1dc45160cd1fd55e1029d7207fb8128077bd9e85b9d92019062001a91565b50604082810151600283810180546060808801516080808a015160a0808c015160ff1990961660ff998a161761ff001916610100948a16949094029390931762ff000019166201000098909116979097029690961763ff00000019166301000000931515939093029290921790925560c096870151600390960195909555835160e08101855264e513eca33180825285518087018752600681526507465737431360d41b602082810191909152808401918252602897840197909752600b9383019390935293810192909252600194820185905260009582018690529190945291815282517fb1d20da8c8c00c29f5e8df9faf66df82b30b02c992dfb100605535988c968e4f9081559151805162001002927fb1d20da8c8c00c29f5e8df9faf66df82b30b02c992dfb100605535988c968e5092019062001a91565b5060408281015160028301805460608087015160808089015160a0808b015160ff1990961660ff9889161761ff001916610100948916949094029390931762ff000019166201000097909116969096029590951763ff00000019166301000000931515939093029290921790925560c095860151600390950194909455825160e08101845264b02a4c06cd80825284518086018652600681526574657374313160d01b602082810191909152808401918252605596840196909652600b938301939093526001938201849052600095820186905295810185905294909352815282517f804168a7ad743abc9352750a537b700b3c0b600d928c4765fb15c795ffe6ee55908155915180516200113b927f804168a7ad743abc9352750a537b700b3c0b600d928c4765fb15c795ffe6ee5692019062001a91565b50604082810151600283810180546060808801516080808a015160a0808c015160ff1990961660ff998a161761ff001916610100948a16949094029390931762ff000019166201000098909116979097029690961763ff00000019166301000000931515939093029290921790925560c096870151600390960195909555835160e0810185526488ee0e30318082528551808701875260068152653a32b9ba189960d11b602082810191909152808401918252604497840197909752600b9383019390935293810192909252600094820185905294810184905292526001815281517f4a3fb811d4b113ee2ca65a56f87b884561696a1fc7edd3fe98eaf05f0e04f4769081559251805192939262001277927f4a3fb811d4b113ee2ca65a56f87b884561696a1fc7edd3fe98eaf05f0e04f47792019062001a91565b5060408281015160028301805460608087015160808089015160a0808b015160ff1990961660ff9889161761ff001916610100948916949094029390931762ff000019166201000097909116969096029590951763ff00000019166301000000931515939093029290921790925560c095860151600390950194909455825160e08101845264e1522cf91580825284518086018652600681526574657374313360d01b602082810191909152808401918252601a96840196909652600b938301939093526001938201849052948101839052600095810186905293909452815281517f57026994d2ae0eca866a75a551989963e7d4d94050f79a43e945ffe7af06ef2c90815592518051929392620013b3927f57026994d2ae0eca866a75a551989963e7d4d94050f79a43e945ffe7af06ef2d92019062001a91565b5060408281015160028301805460608087015160808089015160a0808b015160ff1990961660ff9889161761ff001916610100948916949094029390931762ff000019166201000097909116969096029590951763ff00000019166301000000931515939093029290921790925560c095860151600390950194909455825160e08101845264a97c7f00ef8082528451808601865260068152651d195cdd0c4d60d21b602082810191909152808401918252601196840196909652600b938301939093526001938201849052948101839052600095810186905293909452815281517f4d21fa55ebfb6c114e74444f0f357971a8f79e2c19860f008d6086744123968890815592518051929392620014ef927f4d21fa55ebfb6c114e74444f0f357971a8f79e2c19860f008d6086744123968992019062001a91565b5060408281015160028301805460608087015160808089015160a0808b015160ff1990961660ff9889161761ff001916610100948916949094029390931762ff000019166201000097909116969096029590951763ff00000019166301000000931515939093029290921790925560c095860151600390950194909455825160e081018452648dcc2d6c7880825284518086018652600681526574657374313560d01b602082810191909152808401918252606296840196909652600b938301939093526001938201849052948101839052600095810186905293909452815281517f175640b7317f48c1fe13b4943aa8db51ed910f24b59c7c7a87df1162869c4129908155925180519293926200162b927f175640b7317f48c1fe13b4943aa8db51ed910f24b59c7c7a87df1162869c412a92019062001a91565b50604082810151600283810180546060808801516080808a015160a0808c015160ff1990961660ff998a161761ff001916610100948a16949094029390931762ff000019166201000098909116979097029690961763ff00000019166301000000931515939093029290921790925560c096870151600390960195909555835160e0810185526490614c757c8082528551808701875260068152653a32b9ba189b60d11b602082810191909152808401918252603f97840197909752600b9383019390935293810192909252600094820185905294810184905292526001815281517f02c514276c4433674743470a9edf69caf9576393cb4e3e4e47d815521a37e1af9081559251805192939262001767927f02c514276c4433674743470a9edf69caf9576393cb4e3e4e47d815521a37e1b092019062001a91565b50604082810151600283810180546060808801516080808a015160a0808c015160ff1990961660ff998a161761ff001916610100948a16949094029390931762ff000019166201000098909116979097029690961763ff00000019166301000000931515939093029290921790925560c096870151600390960195909555835160e081018552645df6210bd180825285518087018752600681526574657374313760d01b602082810191909152808401918252602a97840197909752600b9383019390935293810192909252600194820185905260009582018690529190945291815282517f02ea4325dbef716443262e28d8675f811ec12200c84f4bf58633d94510ce66d290815591518051620018a3927f02ea4325dbef716443262e28d8675f811ec12200c84f4bf58633d94510ce66d392019062001a91565b50604082810151600283810180546060808801516080808a015160a0808c015160ff1990961660ff998a161761ff001916610100948a16949094029390931762ff000019166201000098909116979097029690961763ff00000019166301000000931515939093029290921790925560c096870151600390960195909555835160e08101855264c31aeaf9aa8082528551808701875260068152650e8cae6e862760d31b602082810191909152808401918252603897840197909752600b9383019390935293810192909252600194820185905260009582018690529190945291815282517f51a0e312c4d04dc1a459128c3f53e3f3cd897635741f156d17548f323209fd3890815591518051620019df927f51a0e312c4d04dc1a459128c3f53e3f3cd897635741f156d17548f323209fd3992019062001a91565b5060408201516002820180546060850151608086015160a0870151151563010000000263ff0000001960ff928316620100000262ff0000199484166101000261ff00199490981660ff1990961695909517929092169590951791909116919091171691909117905560c090910151600390910155565b6040518060c0016040528060608152602001606081526020016060815260200160008152602001600060ff168152602001600060ff1681525090565b828054600181600116156101000203166002900490600052602060002090601f016020900481019282601f1062001ad457805160ff191683800117855562001b04565b8280016001018555821562001b04579182015b8281111562001b0457825182559160200191906001019062001ae7565b5062001b1292915062001b16565b5090565b62001b3391905b8082111562001b12576000815560010162001b1d565b90565b805162001b438162001b88565b92915050565b6000806040838503121562001b5d57600080fd5b600062001b6b858562001b36565b925050602062001b7e8582860162001b36565b9150509250929050565b62001b938162001b33565b811462001b9f57600080fd5b50565b6116be8062001bb26000396000f3fe608060405234801561001057600080fd5b50600436106100935760003560e01c806381a60c0d1161006657806381a60c0d1461011c5780638a6655d61461013c578063b1bf87b01461014f578063b9d8455214610164578063dce8d8a31461017757610093565b80633477ee2e146100985780635d816e22146100c65780635e23c37c146100db578063618bde0a146100fc575b600080fd5b6100ab6100a6366004611221565b610197565b6040516100bd9695949392919061158e565b60405180910390f35b6100d96100d4366004611247565b610390565b005b6100ee6100e9366004611221565b6103c9565b6040516100bd92919061156e565b61010f61010a366004611221565b610606565b6040516100bd919061153e565b61012f61012a366004611221565b6109b8565b6040516100bd919061154f565b6100d961014a366004611281565b610d0e565b6101576110d5565b6040516100bd91906115fb565b6100d9610172366004611247565b6110db565b61018a610185366004611221565b611106565b6040516100bd9190611560565b600081815481106101a457fe5b60009182526020918290206005919091020180546040805160026001841615610100026000190190931692909204601f81018590048502830185019091528082529193509183919083018282801561023d5780601f106102125761010080835404028352916020019161023d565b820191906000526020600020905b81548152906001019060200180831161022057829003601f168201915b505050505090806001018054600181600116156101000203166002900480601f0160208091040260200160405190810160405280929190818152602001828054600181600116156101000203166002900480156102db5780601f106102b0576101008083540402835291602001916102db565b820191906000526020600020905b8154815290600101906020018083116102be57829003601f168201915b50505060028085018054604080516020601f600019610100600187161502019094169590950492830185900485028101850190915281815295969594509092509083018282801561036d5780601f106103425761010080835404028352916020019161036d565b820191906000526020600020905b81548152906001019060200180831161035057829003601f168201915b50505050600383015460049093015491929160ff80821692506101009091041686565b6004546001600160a01b031633146103a757600080fd5b80600554106103b557600080fd5b80600654116103c357600080fd5b50600655565b60006103d3611149565b60008381526001602052604090206003015415801592506106015760008381526001602081815260408084206003015484526002808352938190208151815494851615610100026000190190941694909404601f8101839004909202830160e090810190915260c083018281529293928492909184919084018282801561049b5780601f106104705761010080835404028352916020019161049b565b820191906000526020600020905b81548152906001019060200180831161047e57829003601f168201915b50505050508152602001600182018054600181600116156101000203166002900480601f01602080910402602001604051908101604052809291908181526020018280546001816001161561010002031660029004801561053d5780601f106105125761010080835404028352916020019161053d565b820191906000526020600020905b81548152906001019060200180831161052057829003601f168201915b5050509183525050600282810180546040805160206001841615610100026000190190931694909404601f810183900483028501830190915280845293810193908301828280156105cf5780601f106105a4576101008083540402835291602001916105cf565b820191906000526020600020905b8154815290600101906020018083116105b257829003601f168201915b50505091835250506003820154602082015260049091015460ff80821660408401526101009091041660609091015290505b915091565b6000818152600160205260408120606091805b6000548110156106ab576000818154811061063057fe5b60009182526020909120600460059092020101546002840154610100900460ff908116911614801561069757506000818154811061066a57fe5b6000918252602090912060046005909202010154600284015462010000900460ff90811661010090920416145b156106a3576001909101905b600101610619565b506060816040519080825280602002602001820160405280156106e857816020015b6106d5611149565b8152602001906001900390816106cd5790505b5090506000805b6000548110156109ad576000818154811061070657fe5b60009182526020909120600460059092020101546002860154610100900460ff908116911614801561076d57506000818154811061074057fe5b6000918252602090912060046005909202010154600286015462010000900460ff90811661010090920416145b156109a5576000818154811061077f57fe5b600091825260209182902060408051600593909302909101805460026001821615610100026000190190911604601f8101859004909402830160e090810190925260c08301848152929390928492909184918401828280156108225780601f106107f757610100808354040283529160200191610822565b820191906000526020600020905b81548152906001019060200180831161080557829003601f168201915b50505050508152602001600182018054600181600116156101000203166002900480601f0160208091040260200160405190810160405280929190818152602001828054600181600116156101000203166002900480156108c45780601f10610899576101008083540402835291602001916108c4565b820191906000526020600020905b8154815290600101906020018083116108a757829003601f168201915b5050509183525050600282810180546040805160206001841615610100026000190190931694909404601f810183900483028501830190915280845293810193908301828280156109565780601f1061092b57610100808354040283529160200191610956565b820191906000526020600020905b81548152906001019060200180831161093957829003601f168201915b50505091835250506003820154602082015260049091015460ff808216604084015261010090910416606090910152835184908490811061099357fe5b60209081029190910101526001909101905b6001016106ef565b509095945050505050565b606081600654106109c857600080fd5b6000546040805182815260208084028201019091526060918015610a0657816020015b6109f3611185565b8152602001906001900390816109eb5790505b50905060005b600054811015610d07576040518060e0016040528060008381548110610a2e57fe5b6000918252602091829020600590910201805460408051601f6002600019610100600187161502019094169390930492830185900485028101850190915281815292830182828015610ac15780601f10610a9657610100808354040283529160200191610ac1565b820191906000526020600020905b815481529060010190602001808311610aa457829003601f168201915b5050505050815260200160008381548110610ad857fe5b90600052602060002090600502016001018054600181600116156101000203166002900480601f016020809104026020016040519081016040528092919081815260200182805460018160011615610100020316600290048015610b7d5780601f10610b5257610100808354040283529160200191610b7d565b820191906000526020600020905b815481529060010190602001808311610b6057829003601f168201915b5050505050815260200160008381548110610b9457fe5b600091825260209182902060026005909202018101805460408051601f600019610100600186161502019093169490940491820185900485028401850190528083529192909190830182828015610c2c5780601f10610c0157610100808354040283529160200191610c2c565b820191906000526020600020905b815481529060010190602001808311610c0f57829003601f168201915b5050505050815260200160036000808581548110610c4657fe5b906000526020600020906005020160030154815260200190815260200160002054815260200160008381548110610c7957fe5b906000526020600020906005020160030154815260200160008381548110610c9d57fe5b600091825260208083206004600590930201919091015460ff168352815492019184908110610cc857fe5b6000918252602090912060059091020160040154610100900460ff1690528251839083908110610cf457fe5b6020908102919091010152600101610a0c565b5092915050565b80600554811015610d1e57600080fd5b600654811115610d2d57600080fd5b8284610d376111c8565b600083815260016020818152604092839020835160e0810185528154815281840180548651600296821615610100026000190190911695909504601f81018590048502860185019096528585529094919385840193909290830182828015610de05780601f10610db557610100808354040283529160200191610de0565b820191906000526020600020905b815481529060010190602001808311610dc357829003601f168201915b5050509183525050600282015460ff8082166020840152610100820481166040840152620100008204811660608401526301000000909104161515608082015260039091015460a0909101529050610e36611149565b6000838152600260208181526040928390208351815460e0601f60001961010060018516150201909216959095049081018490049093028101840190945260c08401828152909284928491840182828015610ed25780601f10610ea757610100808354040283529160200191610ed2565b820191906000526020600020905b815481529060010190602001808311610eb557829003601f168201915b50505050508152602001600182018054600181600116156101000203166002900480601f016020809104026020016040519081016040528092919081815260200182805460018160011615610100020316600290048015610f745780601f10610f4957610100808354040283529160200191610f74565b820191906000526020600020905b815481529060010190602001808311610f5757829003601f168201915b5050509183525050600282810180546040805160206001841615610100026000190190931694909404601f810183900483028501830190915280845293810193908301828280156110065780601f10610fdb57610100808354040283529160200191611006565b820191906000526020600020905b815481529060010190602001808311610fe957829003601f168201915b50505091835250506003820154602082015260049091015460ff808216604080850191909152610100909204811660609093019290925284015191925060129116101561105257600080fd5b8160a0015161106057600080fd5b60c08201511561106f57600080fd5b816060015160ff16816080015160ff161480156110995750816080015160ff168160a0015160ff16145b6110a257600080fd5b50505060009384525050600160208181526040808520600390810187905595855294905292909120805490920190915550565b60065490565b6004546001600160a01b031633146110f257600080fd5b806005541161110057600080fd5b50600555565b60008181526001602052604081206002810154601260ff90911610801590611139575060028101546301000000900460ff165b1561114357600191505b50919050565b6040518060c0016040528060608152602001606081526020016060815260200160008152602001600060ff168152602001600060ff1681525090565b6040518060e001604052806060815260200160608152602001606081526020016000815260200160008152602001600060ff168152602001600060ff1681525090565b6040518060e001604052806000815260200160608152602001600060ff168152602001600060ff168152602001600060ff168152602001600015158152602001600081525090565b803561121b81611664565b92915050565b60006020828403121561123357600080fd5b600061123f8484611210565b949350505050565b6000806040838503121561125a57600080fd5b60006112668585611210565b925050602061127785828601611210565b9150509250929050565b60008060006060848603121561129657600080fd5b60006112a28686611210565b93505060206112b386828701611210565b92505060406112c486828701611210565b9150509250925092565b60006112da8383611403565b9392505050565b60006112da8383611492565b60006112f88261160f565b6113028185611613565b93508360208202850161131485611609565b8060005b8581101561134e578484038952815161133185826112ce565b945061133c83611609565b60209a909a0199925050600101611318565b5091979650505050505050565b60006113668261160f565b6113708185611613565b93508360208202850161138285611609565b8060005b8581101561134e578484038952815161139f85826112e1565b94506113aa83611609565b60209a909a0199925050600101611386565b6113c58161161c565b82525050565b60006113d68261160f565b6113e08185611613565b93506113f081856020860161162a565b6113f98161165a565b9093019392505050565b805160c08084526000919084019061141b82826113cb565b9150506020830151848203602086015261143582826113cb565b9150506040830151848203604086015261144f82826113cb565b9150506060830151611464606086018261152c565b5060808301516114776080860182611535565b5060a083015161148a60a0860182611535565b509392505050565b805160e0808452600091908401906114aa82826113cb565b915050602083015184820360208601526114c482826113cb565b915050604083015184820360408601526114de82826113cb565b91505060608301516114f3606086018261152c565b506080830151611506608086018261152c565b5060a083015161151960a0860182611535565b5060c083015161148a60c0860182611535565b6113c581611621565b6113c581611624565b602080825281016112da81846112ed565b602080825281016112da818461135b565b6020810161121b82846113bc565b6040810161157c82856113bc565b818103602083015261123f8184611403565b60c0808252810161159f81896113cb565b905081810360208301526115b381886113cb565b905081810360408301526115c781876113cb565b90506115d6606083018661152c565b6115e36080830185611535565b6115f060a0830184611535565b979650505050505050565b6020810161121b828461152c565b60200190565b5190565b90815260200190565b151590565b90565b60ff1690565b60005b8381101561164557818101518382015260200161162d565b83811115611654576000848401525b50505050565b601f01601f191690565b61166d81611621565b811461167857600080fd5b5056fea365627a7a7231582031ce10c7bb35366bb4eb5d9871fba9247ac94016ae5de55d58016da6ee4d62f76c6578706572696d656e74616cf564736f6c6343000510004068747470733a2f2f75706c6f61642e77696b696d656469612e6f72672f77696b6970656469612f636f6d6d6f6e732f7468756d622f622f62392f50616e656c6c696e696f5f536f7369616c697374696b6f5f4b696e696d615f4c6f676f2e7376672f38303070782d50616e656c6c696e696f5f536f7369616c697374696b6f5f4b696e696d615f4c6f676f2e7376672e706e6768747470733a2f2f7777772e6b2d7469706f732e67722f77702d636f6e74656e742f75706c6f6164732f323031382f30342f6b6b652d6c6f676f2e6a706768747470733a2f2f75706c6f61642e77696b696d656469612e6f72672f77696b6970656469612f636f6d6d6f6e732f7468756d622f612f61652f4d65726132352d6c6f676f2e7376672f3132303070782d4d65726132352d6c6f676f2e7376672e706e6768747470733a2f2f7777772e6e6577733234372e67722f696d672f313635392f363635343431302f3636333030302f773636302f3636302f6e646e65776c6f676f6f6666696369616c2e6a706768747470733a2f2f677265656b7265706f727465722e636f6d2f77702d636f6e74656e742f75706c6f6164732f323032302f30392f737972697a612d6e656f2d73696d612d31352d392d32302e6a7067",
  "source": "// SPDX-License-Identifier: GPL-3.0\npragma experimental ABIEncoderV2;\npragma solidity >=0.4.25 <0.9.0;\n\nimport \"./Types.sol\";\n\n/**\n * @title Ballot\n * @author Aimilios Vatikiotis \n * @dev Implements voting process along with winning candidate\n */\ncontract Ballot {\n    Types.Candidate[] public candidates;\n    mapping(uint256 => Types.Voter) voter;\n    mapping(uint256 => Types.Candidate) candidate;\n    mapping(uint256 => uint256) internal votesCount;\n\n    address electionChief;\n    uint256 private votingStartTime;\n    uint256 private votingEndTime;\n\n    /**\n     * @dev Create a new ballot to choose one of 'candidateNames'\n     * @param startTime_ When the voting process will start\n     * @param endTime_ When the voting process will end\n     */\n     constructor(uint256 startTime_, uint256 endTime_) public{\n        initializeCandidateDatabase_();\n        initializeVoterDatabase_();\n        votingStartTime = startTime_;\n        votingEndTime = endTime_;\n        electionChief = msg.sender;\n    }\n\n    /**\n     * @dev Get candidate list.\n     * @param voterNumber Number of the current voter to send the relevent candidates list\n     * @return candidatesList_ All the politicians who participate in the election\n     */\n    function getCandidateList(uint256 voterNumber)\n        public\n        view\n        returns (Types.Candidate[] memory)\n    {\n        Types.Voter storage voter_ = voter[voterNumber];\n        uint256 _politicianOfMyConstituencyLength = 0;\n\n        for (uint256 i = 0; i < candidates.length; i++) {\n            if (\n                voter_.stateCode == candidates[i].stateCode &&\n                voter_.constituencyCode == candidates[i].constituencyCode\n            ) _politicianOfMyConstituencyLength++;\n        }\n        Types.Candidate[] memory cc = new Types.Candidate[](\n            _politicianOfMyConstituencyLength\n        );\n\n        uint256 _indx = 0;\n        for (uint256 i = 0; i < candidates.length; i++) {\n            if (\n                voter_.stateCode == candidates[i].stateCode &&\n                voter_.constituencyCode == candidates[i].constituencyCode\n            ) {\n                cc[_indx] = candidates[i];\n                _indx++;\n            }\n        }\n        return cc;\n    }\n\n    /**\n     * @dev Get candidate list.\n     * @param voterNumber  number of the current voter to send the relevent candidates list\n     * @return voterEligible_ Whether the voter with provided  is eligible or not\n     */\n    function isVoterEligible(uint256 voterNumber)\n        public\n        view\n        returns (bool voterEligible_)\n    {\n        Types.Voter storage voter_ = voter[voterNumber];\n        if (voter_.age >= 18 && voter_.isAlive) voterEligible_ = true;\n    }\n\n    /**\n     * @dev Know whether the voter casted their vote or not. If casted get candidate object.\n     * @param voterNumber  number of the current voter\n     * @return userVoted_ Boolean value which gives whether current voter casted vote or not\n     * @return candidate_ Candidate details to whom voter casted his/her vote\n     */\n    function didCurrentVoterVoted(uint256 voterNumber)\n        public\n        view\n        returns (bool userVoted_, Types.Candidate memory candidate_)\n    {\n        userVoted_ = (voter[voterNumber].votedTo != 0);\n        if (userVoted_)\n            candidate_ = candidate[voter[voterNumber].votedTo];\n    }\n\n    /**\n     * @dev Give your vote to candidate.\n     * @param nominationNumber  Number of the candidate\n     * @param voterNumber  Number of the voter to avoid re-entry\n     * @param currentTime_ To check if the election has started or not\n     */\n    function vote(\n        uint256 nominationNumber,\n        uint256 voterNumber,\n        uint256 currentTime_\n    )\n        public\n        votingLinesAreOpen(currentTime_)\n        isEligibleVote(voterNumber, nominationNumber)\n    {\n        // updating the current voter values\n        voter[voterNumber].votedTo = nominationNumber;\n\n        // updates the votes the politician\n        uint256 voteCount_ = votesCount[nominationNumber];\n        votesCount[nominationNumber] = voteCount_ + 1;\n    }\n\n    /**\n     * @dev Gives ending epoch time of voting\n     * @return endTime_ When the voting ends\n     */\n    function getVotingEndTime() public view returns (uint256 endTime_) {\n        endTime_ = votingEndTime;\n    }\n\n    /**\n     * @dev used to update the voting start & end times\n     * @param startTime_ Start time that needs to be updated\n     * @param currentTime_ Current time that needs to be updated\n     */\n    function updateVotingStartTime(uint256 startTime_, uint256 currentTime_)\n        public\n        isElectionChief\n    {\n        require(votingStartTime > currentTime_);\n        votingStartTime = startTime_;\n    }\n\n    /**\n     * @dev To extend the end of the voting\n     * @param endTime_ End time that needs to be updated\n     * @param currentTime_ Current time that needs to be updated\n     */\n    function extendVotingTime(uint256 endTime_, uint256 currentTime_)\n        public\n        isElectionChief\n    {\n        require(votingStartTime < currentTime_);\n        require(votingEndTime > currentTime_);\n        votingEndTime = endTime_;\n    }\n\n    /**\n     * @dev sends all candidate list with their votes count\n     * @param currentTime_ Current epoch time of length 10.\n     * @return candidateList_ List of Candidate objects with votes count\n     */\n    function getResults(uint256 currentTime_)\n        public\n        view\n        returns (Types.Results[] memory)\n    {\n        require(votingEndTime < currentTime_);\n        Types.Results[] memory resultsList_ = new Types.Results[](\n            candidates.length\n        );\n        for (uint256 i = 0; i < candidates.length; i++) {\n            resultsList_[i] = Types.Results({\n                name: candidates[i].name,\n                partyShortcut: candidates[i].partyShortcut,\n                partyFlag: candidates[i].partyFlag,\n                nominationNumber: candidates[i].nominationNumber,\n                stateCode: candidates[i].stateCode,\n                constituencyCode: candidates[i].constituencyCode,\n                voteCount: votesCount[candidates[i].nominationNumber]\n            });\n        }\n        return resultsList_;\n    }\n\n    /**\n     * @notice To check if the voter's age is greater than or equal to 18\n     * @param currentTime_ Current epoch time of the voter\n     */\n    modifier votingLinesAreOpen(uint256 currentTime_) {\n        require(currentTime_ >= votingStartTime);\n        require(currentTime_ <= votingEndTime);\n        _;\n    }\n\n    /**\n     * @notice To check if the voter's age is greater than or equal to 18\n     * @param voterAadhar_ Aadhar number of the current voter\n     * @param nominationNumber_ Nomination number of the candidate\n     */\n    modifier isEligibleVote(uint256 voterAadhar_, uint256 nominationNumber_) {\n        Types.Voter memory voter_ = voter[voterAadhar_];\n        Types.Candidate memory politician_ = candidate[nominationNumber_];\n        require(voter_.age >= 18);\n        require(voter_.isAlive);\n        require(voter_.votedTo == 0);\n        require(\n            (politician_.stateCode == voter_.stateCode &&\n                politician_.constituencyCode == voter_.constituencyCode)\n        );\n        _;\n    }\n\n    /**\n     * @notice To check if the user is Election Chief or not\n     */\n    modifier isElectionChief() {\n        require(msg.sender == electionChief);\n        _;\n    }\n\n    /**\n     * Dummy data for Candidates\n     * In the future, we can accept the same from construction,\n     * which will be called at the time of deployment\n     */\n    function initializeCandidateDatabase_() internal {\n        Types.Candidate[] memory candidates_ = new Types.Candidate[](14);\n\n        // Kyriakos Mhtsotakis\n        candidates_[0] = Types.Candidate({\n            name: \"Kyriakios Mhtsotakis\",\n            partyShortcut: \"ND\",\n            partyFlag: \"https://www.news247.gr/img/1659/6654410/663000/w660/660/ndnewlogoofficial.jpg\",\n            nominationNumber: uint256(727477314982),\n            stateCode: uint8(10),\n            constituencyCode: uint8(1)\n        });\n        candidates_[1] = Types.Candidate({\n            name: \"Nikos Androulakis\",\n            partyShortcut: \"PASOK\",\n            partyFlag: \"https://upload.wikimedia.org/wikipedia/commons/thumb/b/b9/Panellinio_Sosialistiko_Kinima_Logo.svg/800px-Panellinio_Sosialistiko_Kinima_Logo.svg.png\",\n            nominationNumber: uint256(835343722350),\n            stateCode: uint8(10),\n            constituencyCode: uint8(1)\n        });\n        candidates_[2] = Types.Candidate({\n            name: \"Alexis Tsirpas\",\n            partyShortcut: \"SYRIZA\",\n            partyFlag: \"https://greekreporter.com/wp-content/uploads/2020/09/syriza-neo-sima-15-9-20.jpg\",\n            nominationNumber: uint256(969039304119),\n            stateCode: uint8(10),\n            constituencyCode: uint8(2)\n        });\n        candidates_[3] = Types.Candidate({\n            name: \"Dimitris Koutsoumpas\",\n            partyShortcut: \"KKE\",\n            partyFlag: \"https://www.k-tipos.gr/wp-content/uploads/2018/04/kke-logo.jpg\",\n            nominationNumber: uint256(429300763874),\n            stateCode: uint8(10),\n            constituencyCode: uint8(2)\n        });\n\n        candidates_[4] = Types.Candidate({\n            name: \"Giannis Varoufakis\",\n            partyShortcut: \"MERA25\",\n            partyFlag: \"https://upload.wikimedia.org/wikipedia/commons/thumb/a/ae/Mera25-logo.svg/1200px-Mera25-logo.svg.png\",\n            nominationNumber: uint256(895363124093),\n            stateCode: uint8(11),\n            constituencyCode: uint8(1)\n        });\n    \n    }\n\n    /**\n     * Dummy data for voter users\n     */\n    function initializeVoterDatabase_() internal {\n        voter[uint256(482253918244)] = Types.Voter({\n            name: \"test1\",\n            number: uint256(482253918244),\n            age: uint8(21),\n            stateCode: uint8(10),\n            constituencyCode: uint8(1),\n            isAlive: true,\n            votedTo: uint256(0)\n        });\n        voter[uint256(532122269467)] = Types.Voter({\n            name: \"test2\",\n            number: uint256(532122269467),\n            age: uint8(37),\n            stateCode: uint8(10),\n            constituencyCode: uint8(1),\n            isAlive: false,\n            votedTo: uint256(0)\n        });\n        voter[uint256(468065932286)] = Types.Voter({\n            name: \"test3\",\n            number: uint256(468065932286),\n            age: uint8(26),\n            stateCode: uint8(10),\n            constituencyCode: uint8(1),\n            isAlive: true,\n            votedTo: uint256(0)\n        });\n        voter[uint256(809961147437)] = Types.Voter({\n            name: \"test4\",\n            number: uint256(809961147437),\n            age: uint8(19),\n            stateCode: uint8(10),\n            constituencyCode: uint8(2),\n            isAlive: true,\n            votedTo: uint256(0)\n        });\n        voter[uint256(908623597782)] = Types.Voter({\n            name: \"test5\",\n            number: uint256(908623597782),\n            age: uint8(36),\n            stateCode: uint8(10),\n            constituencyCode: uint8(2),\n            isAlive: true,\n            votedTo: uint256(0)\n        });\n        voter[uint256(760344621247)] = Types.Voter({\n            name: \"test6\",\n            number: uint256(760344621247),\n            age: uint8(42),\n            stateCode: uint8(10),\n            constituencyCode: uint8(2),\n            isAlive: true,\n            votedTo: uint256(0)\n        });\n        voter[uint256(908704156902)] = Types.Voter({\n            name: \"test7\",\n            number: uint256(908704156902),\n            age: uint8(25),\n            stateCode: uint8(11),\n            constituencyCode: uint8(1),\n            isAlive: true,\n            votedTo: uint256(0)\n        });\n        voter[uint256(778925466180)] = Types.Voter({\n            name: \"test8\",\n            number: uint256(778925466180),\n            age: uint8(37),\n            stateCode: uint8(11),\n            constituencyCode: uint8(1),\n            isAlive: true,\n            votedTo: uint256(0)\n        });\n        voter[uint256(393071790055)] = Types.Voter({\n            name: \"test9\",\n            number: uint256(393071790055),\n            age: uint8(29),\n            stateCode: uint8(11),\n            constituencyCode: uint8(2),\n            isAlive: true,\n            votedTo: uint256(0)\n        });\n        voter[uint256(983881786161)] = Types.Voter({\n            name: \"test10\",\n            number: uint256(983881786161),\n            age: uint8(40),\n            stateCode: uint8(11),\n            constituencyCode: uint8(2),\n            isAlive: true,\n            votedTo: uint256(0)\n        });\n        voter[uint256(756623869645)] = Types.Voter({\n            name: \"test11\",\n            number: uint256(756623869645),\n            age: uint8(85),\n            stateCode: uint8(11),\n            constituencyCode: uint8(1),\n            isAlive: false,\n            votedTo: uint256(0)\n        });\n        voter[uint256(588109459505)] = Types.Voter({\n            name: \"test12\",\n            number: uint256(588109459505),\n            age: uint8(68),\n            stateCode: uint8(11),\n            constituencyCode: uint8(2),\n            isAlive: false,\n            votedTo: uint256(0)\n        });\n        // West Bengal\n        voter[uint256(967746320661)] = Types.Voter({\n            name: \"test13\",\n            number: uint256(967746320661),\n            age: uint8(26),\n            stateCode: uint8(11),\n            constituencyCode: uint8(1),\n            isAlive: true,\n            votedTo: uint256(0)\n        });\n        voter[uint256(727938171119)] = Types.Voter({\n            name: \"test14\",\n            number: uint256(727938171119),\n            age: uint8(17),\n            stateCode: uint8(11),\n            constituencyCode: uint8(1),\n            isAlive: true,\n            votedTo: uint256(0)\n        });\n        voter[uint256(609015917688)] = Types.Voter({\n            name: \"test15\",\n            number: uint256(609015917688),\n            age: uint8(98),\n            stateCode: uint8(11),\n            constituencyCode: uint8(1),\n            isAlive: true,\n            votedTo: uint256(0)\n        });\n        voter[uint256(620107691388)] = Types.Voter({\n            name: \"test16\",\n            number: uint256(620107691388),\n            age: uint8(63),\n            stateCode: uint8(11),\n            constituencyCode: uint8(2),\n            isAlive: false,\n            votedTo: uint256(0)\n        });\n        voter[uint256(403561319377)] = Types.Voter({\n            name: \"test17\",\n            number: uint256(403561319377),\n            age: uint8(42),\n            stateCode: uint8(11),\n            constituencyCode: uint8(2),\n            isAlive: true,\n            votedTo: uint256(0)\n        });\n        voter[uint256(837970229674)] = Types.Voter({\n            name: \"test18\",\n            number: uint256(837970229674),\n            age: uint8(56),\n            stateCode: uint8(11),\n            constituencyCode: uint8(2),\n            isAlive: true,\n            votedTo: uint256(0)\n        });\n    }\n}",
  "sourcePath": "/home/aimilios/Desktop/blockchain/contracts/Ballot.sol",
  "compiler": {
    "name": "solc",
    "version": "0.5.16+commit.9c3226ce.Emscripten.clang"
  },
  "schemaVersion": "3.4.9",
  "updatedAt": "2022-09-12T18:22:06.365Z",
  "networkType": "ethereum",
  "devdoc": {
    "author": "Aimilios Vatikiotis ",
    "details": "Implements voting process along with winning candidate",
    "methods": {
      "constructor": {
        "details": "Create a new ballot to choose one of 'candidateNames'",
        "params": {
          "endTime_": "When the voting process will end",
          "startTime_": "When the voting process will start"
        }
      },
      "didCurrentVoterVoted(uint256)": {
        "details": "Know whether the voter casted their vote or not. If casted get candidate object.",
        "params": {
          "voterNumber": "number of the current voter"
        },
        "return": "userVoted_ Boolean value which gives whether current voter casted vote or notcandidate_ Candidate details to whom voter casted his/her vote"
      },
      "extendVotingTime(uint256,uint256)": {
        "details": "To extend the end of the voting",
        "params": {
          "currentTime_": "Current time that needs to be updated",
          "endTime_": "End time that needs to be updated"
        }
      },
      "getCandidateList(uint256)": {
        "details": "Get candidate list.",
        "params": {
          "voterNumber": "Number of the current voter to send the relevent candidates list"
        },
        "return": "candidatesList_ All the politicians who participate in the election"
      },
      "getResults(uint256)": {
        "details": "sends all candidate list with their votes count",
        "params": {
          "currentTime_": "Current epoch time of length 10."
        },
        "return": "candidateList_ List of Candidate objects with votes count"
      },
      "getVotingEndTime()": {
        "details": "Gives ending epoch time of voting",
        "return": "endTime_ When the voting ends"
      },
      "isVoterEligible(uint256)": {
        "details": "Get candidate list.",
        "params": {
          "voterNumber": "number of the current voter to send the relevent candidates list"
        },
        "return": "voterEligible_ Whether the voter with provided  is eligible or not"
      },
      "updateVotingStartTime(uint256,uint256)": {
        "details": "used to update the voting start & end times",
        "params": {
          "currentTime_": "Current time that needs to be updated",
          "startTime_": "Start time that needs to be updated"
        }
      },
      "vote(uint256,uint256,uint256)": {
        "details": "Give your vote to candidate.",
        "params": {
          "currentTime_": "To check if the election has started or not",
          "nominationNumber": "Number of the candidate",
          "voterNumber": "Number of the voter to avoid re-entry"
        }
      }
    },
    "title": "Ballot"
  },
  "userdoc": {
    "methods": {}
  }
}